{
  "contractName": "JJTicket",
  "abi": [
    {
      "inputs": [
        {
          "internalType": "address",
          "name": "_jjCoinAddress",
          "type": "address"
        },
        {
          "internalType": "uint256",
          "name": "_ticketPrice",
          "type": "uint256"
        },
        {
          "internalType": "uint256",
          "name": "_totalTickets",
          "type": "uint256"
        }
      ],
      "stateMutability": "nonpayable",
      "type": "constructor"
    },
    {
      "anonymous": false,
      "inputs": [
        {
          "indexed": true,
          "internalType": "bytes32",
          "name": "hashValue",
          "type": "bytes32"
        },
        {
          "indexed": false,
          "internalType": "uint256",
          "name": "timestamp",
          "type": "uint256"
        }
      ],
      "name": "HashAdded",
      "type": "event"
    },
    {
      "anonymous": false,
      "inputs": [
        {
          "indexed": true,
          "internalType": "bytes32",
          "name": "hashValue",
          "type": "bytes32"
        },
        {
          "indexed": true,
          "internalType": "address",
          "name": "buyer",
          "type": "address"
        },
        {
          "indexed": false,
          "internalType": "uint256",
          "name": "timestamp",
          "type": "uint256"
        }
      ],
      "name": "HashUsed",
      "type": "event"
    },
    {
      "anonymous": false,
      "inputs": [
        {
          "indexed": false,
          "internalType": "uint256",
          "name": "oldPrice",
          "type": "uint256"
        },
        {
          "indexed": false,
          "internalType": "uint256",
          "name": "newPrice",
          "type": "uint256"
        },
        {
          "indexed": false,
          "internalType": "uint256",
          "name": "timestamp",
          "type": "uint256"
        }
      ],
      "name": "PriceUpdated",
      "type": "event"
    },
    {
      "anonymous": false,
      "inputs": [
        {
          "indexed": true,
          "internalType": "address",
          "name": "buyer",
          "type": "address"
        },
        {
          "indexed": true,
          "internalType": "bytes32",
          "name": "ticketHash",
          "type": "bytes32"
        },
        {
          "indexed": false,
          "internalType": "uint256",
          "name": "price",
          "type": "uint256"
        },
        {
          "indexed": false,
          "internalType": "uint256",
          "name": "timestamp",
          "type": "uint256"
        }
      ],
      "name": "TicketPurchased",
      "type": "event"
    },
    {
      "inputs": [
        {
          "internalType": "uint256",
          "name": "",
          "type": "uint256"
        }
      ],
      "name": "allHashes",
      "outputs": [
        {
          "internalType": "bytes32",
          "name": "",
          "type": "bytes32"
        }
      ],
      "stateMutability": "view",
      "type": "function",
      "constant": true
    },
    {
      "inputs": [
        {
          "internalType": "address",
          "name": "",
          "type": "address"
        },
        {
          "internalType": "uint256",
          "name": "",
          "type": "uint256"
        }
      ],
      "name": "buyerHashes",
      "outputs": [
        {
          "internalType": "bytes32",
          "name": "",
          "type": "bytes32"
        }
      ],
      "stateMutability": "view",
      "type": "function",
      "constant": true
    },
    {
      "inputs": [],
      "name": "jjCoin",
      "outputs": [
        {
          "internalType": "contract IERC20",
          "name": "",
          "type": "address"
        }
      ],
      "stateMutability": "view",
      "type": "function",
      "constant": true
    },
    {
      "inputs": [],
      "name": "owner",
      "outputs": [
        {
          "internalType": "address",
          "name": "",
          "type": "address"
        }
      ],
      "stateMutability": "view",
      "type": "function",
      "constant": true
    },
    {
      "inputs": [],
      "name": "soldTickets",
      "outputs": [
        {
          "internalType": "uint256",
          "name": "",
          "type": "uint256"
        }
      ],
      "stateMutability": "view",
      "type": "function",
      "constant": true
    },
    {
      "inputs": [
        {
          "internalType": "bytes32",
          "name": "",
          "type": "bytes32"
        }
      ],
      "name": "ticketHashes",
      "outputs": [
        {
          "internalType": "bytes32",
          "name": "hashValue",
          "type": "bytes32"
        },
        {
          "internalType": "address",
          "name": "buyer",
          "type": "address"
        },
        {
          "internalType": "uint256",
          "name": "purchaseTime",
          "type": "uint256"
        },
        {
          "internalType": "bool",
          "name": "isUsed",
          "type": "bool"
        },
        {
          "internalType": "bool",
          "name": "exists",
          "type": "bool"
        }
      ],
      "stateMutability": "view",
      "type": "function",
      "constant": true
    },
    {
      "inputs": [],
      "name": "ticketPrice",
      "outputs": [
        {
          "internalType": "uint256",
          "name": "",
          "type": "uint256"
        }
      ],
      "stateMutability": "view",
      "type": "function",
      "constant": true
    },
    {
      "inputs": [],
      "name": "totalTickets",
      "outputs": [
        {
          "internalType": "uint256",
          "name": "",
          "type": "uint256"
        }
      ],
      "stateMutability": "view",
      "type": "function",
      "constant": true
    },
    {
      "inputs": [
        {
          "internalType": "bytes32[]",
          "name": "_hashes",
          "type": "bytes32[]"
        }
      ],
      "name": "addTicketHashes",
      "outputs": [],
      "stateMutability": "nonpayable",
      "type": "function"
    },
    {
      "inputs": [
        {
          "internalType": "bytes32",
          "name": "_desiredHash",
          "type": "bytes32"
        }
      ],
      "name": "purchaseTicket",
      "outputs": [],
      "stateMutability": "nonpayable",
      "type": "function"
    },
    {
      "inputs": [],
      "name": "purchaseRandomTicket",
      "outputs": [
        {
          "internalType": "bytes32",
          "name": "",
          "type": "bytes32"
        }
      ],
      "stateMutability": "nonpayable",
      "type": "function"
    },
    {
      "inputs": [
        {
          "internalType": "bytes32",
          "name": "_hash",
          "type": "bytes32"
        }
      ],
      "name": "markHashAsUsed",
      "outputs": [],
      "stateMutability": "nonpayable",
      "type": "function"
    },
    {
      "inputs": [
        {
          "internalType": "bytes32",
          "name": "_hash",
          "type": "bytes32"
        }
      ],
      "name": "getTicketInfo",
      "outputs": [
        {
          "internalType": "address",
          "name": "buyer",
          "type": "address"
        },
        {
          "internalType": "uint256",
          "name": "purchaseTime",
          "type": "uint256"
        },
        {
          "internalType": "bool",
          "name": "isUsed",
          "type": "bool"
        },
        {
          "internalType": "bool",
          "name": "exists",
          "type": "bool"
        }
      ],
      "stateMutability": "view",
      "type": "function",
      "constant": true
    },
    {
      "inputs": [
        {
          "internalType": "address",
          "name": "_buyer",
          "type": "address"
        }
      ],
      "name": "getBuyerHashes",
      "outputs": [
        {
          "internalType": "bytes32[]",
          "name": "",
          "type": "bytes32[]"
        }
      ],
      "stateMutability": "view",
      "type": "function",
      "constant": true
    },
    {
      "inputs": [],
      "name": "getAvailableTicketsCount",
      "outputs": [
        {
          "internalType": "uint256",
          "name": "",
          "type": "uint256"
        }
      ],
      "stateMutability": "view",
      "type": "function",
      "constant": true
    },
    {
      "inputs": [],
      "name": "getAllHashes",
      "outputs": [
        {
          "internalType": "bytes32[]",
          "name": "",
          "type": "bytes32[]"
        }
      ],
      "stateMutability": "view",
      "type": "function",
      "constant": true
    },
    {
      "inputs": [
        {
          "internalType": "bytes32",
          "name": "_hash",
          "type": "bytes32"
        },
        {
          "internalType": "address",
          "name": "_buyer",
          "type": "address"
        }
      ],
      "name": "verifyTicketHash",
      "outputs": [
        {
          "internalType": "bool",
          "name": "",
          "type": "bool"
        }
      ],
      "stateMutability": "view",
      "type": "function",
      "constant": true
    },
    {
      "inputs": [
        {
          "internalType": "uint256",
          "name": "_newPrice",
          "type": "uint256"
        }
      ],
      "name": "updateTicketPrice",
      "outputs": [],
      "stateMutability": "nonpayable",
      "type": "function"
    },
    {
      "inputs": [
        {
          "internalType": "uint256",
          "name": "_newTotal",
          "type": "uint256"
        }
      ],
      "name": "updateTotalTickets",
      "outputs": [],
      "stateMutability": "nonpayable",
      "type": "function"
    },
    {
      "inputs": [
        {
          "internalType": "uint256",
          "name": "_amount",
          "type": "uint256"
        }
      ],
      "name": "withdrawJJCoin",
      "outputs": [],
      "stateMutability": "nonpayable",
      "type": "function"
    },
    {
      "inputs": [
        {
          "internalType": "address",
          "name": "_newOwner",
          "type": "address"
        }
      ],
      "name": "transferOwnership",
      "outputs": [],
      "stateMutability": "nonpayable",
      "type": "function"
    }
  ],
  "bytecode": "0x60806040523480156200001157600080fd5b5060405162002b9838038062002b9883398181016040528101906200003791906200017c565b336000806101000a81548173ffffffffffffffffffffffffffffffffffffffff021916908373ffffffffffffffffffffffffffffffffffffffff16021790555082600160006101000a81548173ffffffffffffffffffffffffffffffffffffffff021916908373ffffffffffffffffffffffffffffffffffffffff16021790555081600281905550806003819055506000600481905550505050620001d8565b600080fd5b600073ffffffffffffffffffffffffffffffffffffffff82169050919050565b60006200010982620000dc565b9050919050565b6200011b81620000fc565b81146200012757600080fd5b50565b6000815190506200013b8162000110565b92915050565b6000819050919050565b620001568162000141565b81146200016257600080fd5b50565b60008151905062000176816200014b565b92915050565b600080600060608486031215620001985762000197620000d7565b5b6000620001a8868287016200012a565b9350506020620001bb8682870162000165565b9250506040620001ce8682870162000165565b9150509250925092565b6129b080620001e86000396000f3fe608060405234801561001057600080fd5b5060043610610154576000357c0100000000000000000000000000000000000000000000000000000000900480638d150e97116100d5578063f02137c811610099578063f02137c814610374578063f2fde38b14610390578063f5be67c5146103ac578063fa8ffd92146103dc578063fcf705b2146103fa578063fe99f7421461041657610154565b80638d150e97146102cc5780638da5cb5b146102fc57806395dab5a91461031a578063a31aa84b14610338578063dd11247e1461035657610154565b806323554c781161011c57806323554c7814610213578063313ef096146102315780637e126d8a14610261578063860e79301461027d57806387e9a7441461029957610154565b806304cd4e211461015957806307530fcb146101895780631209b1f6146101a5578063129a4202146101c357806322e68703146101df575b600080fd5b610173600480360381019061016e9190611ca1565b610434565b6040516101809190611d96565b60405180910390f35b6101a3600480360381019061019e9190611dee565b6104cb565b005b6101ad6105a8565b6040516101ba9190611e2a565b60405180910390f35b6101dd60048036038101906101d89190611e71565b6105ae565b005b6101f960048036038101906101f49190611e71565b610aa1565b60405161020a959493929190611ed7565b60405180910390f35b61021b610b11565b6040516102289190611f2a565b60405180910390f35b61024b60048036038101906102469190611dee565b611005565b6040516102589190611f2a565b60405180910390f35b61027b60048036038101906102769190611faa565b611029565b005b61029760048036038101906102929190611dee565b611315565b005b6102b360048036038101906102ae9190611e71565b6114c1565b6040516102c39493929190611ff7565b60405180910390f35b6102e660048036038101906102e1919061203c565b6115ad565b6040516102f3919061207c565b60405180910390f35b610304611675565b6040516103119190612097565b60405180910390f35b610322611699565b60405161032f9190611e2a565b60405180910390f35b6103406116b0565b60405161034d9190611e2a565b60405180910390f35b61035e6116b6565b60405161036b9190611e2a565b60405180910390f35b61038e60048036038101906103899190611dee565b6116bc565b005b6103aa60048036038101906103a59190611ca1565b611797565b005b6103c660048036038101906103c191906120b2565b6118d7565b6040516103d39190611f2a565b60405180910390f35b6103e4611908565b6040516103f19190612151565b60405180910390f35b610414600480360381019061040f9190611e71565b61192e565b005b61041e611be1565b60405161042b9190611d96565b60405180910390f35b6060600660008373ffffffffffffffffffffffffffffffffffffffff1673ffffffffffffffffffffffffffffffffffffffff1681526020019081526020016000208054806020026020016040519081016040528092919081815260200182805480156104bf57602002820191906000526020600020905b8154815260200190600101908083116104ab575b50505050509050919050565b60008054906101000a900473ffffffffffffffffffffffffffffffffffffffff1673ffffffffffffffffffffffffffffffffffffffff163373ffffffffffffffffffffffffffffffffffffffff1614610559576040517f08c379a0000000000000000000000000000000000000000000000000000000008152600401610550906121ef565b60405180910390fd5b60045481101561059e576040517f08c379a000000000000000000000000000000000000000000000000000000000815260040161059590612281565b60405180910390fd5b8060038190555050565b60025481565b600354600454106105f4576040517f08c379a00000000000000000000000000000000000000000000000000000000081526004016105eb906122ed565b60405180910390fd5b806005600082815260200190815260200160002060030160019054906101000a900460ff16610658576040517f08c379a000000000000000000000000000000000000000000000000000000000815260040161064f90612359565b60405180910390fd5b6005600082815260200190815260200160002060030160009054906101000a900460ff16156106bc576040517f08c379a00000000000000000000000000000000000000000000000000000000081526004016106b3906123c5565b60405180910390fd5b600073ffffffffffffffffffffffffffffffffffffffff166005600084815260200190815260200160002060010160009054906101000a900473ffffffffffffffffffffffffffffffffffffffff1673ffffffffffffffffffffffffffffffffffffffff1614610761576040517f08c379a000000000000000000000000000000000000000000000000000000000815260040161075890612431565b60405180910390fd5b600254600160009054906101000a900473ffffffffffffffffffffffffffffffffffffffff1673ffffffffffffffffffffffffffffffffffffffff166370a08231336040518263ffffffff167c01000000000000000000000000000000000000000000000000000000000281526004016107db9190612097565b602060405180830381865afa1580156107f8573d6000803e3d6000fd5b505050506040513d601f19601f8201168201806040525081019061081c9190612466565b101561085d576040517f08c379a0000000000000000000000000000000000000000000000000000000008152600401610854906124df565b60405180910390fd5b600160009054906101000a900473ffffffffffffffffffffffffffffffffffffffff1673ffffffffffffffffffffffffffffffffffffffff166323b872dd33306002546040518463ffffffff167c01000000000000000000000000000000000000000000000000000000000281526004016108da939291906124ff565b6020604051808303816000875af11580156108f9573d6000803e3d6000fd5b505050506040513d601f19601f8201168201806040525081019061091d9190612562565b61095c576040517f08c379a0000000000000000000000000000000000000000000000000000000008152600401610953906125db565b60405180910390fd5b336005600084815260200190815260200160002060010160006101000a81548173ffffffffffffffffffffffffffffffffffffffff021916908373ffffffffffffffffffffffffffffffffffffffff160217905550426005600084815260200190815260200160002060020181905550600660003373ffffffffffffffffffffffffffffffffffffffff1673ffffffffffffffffffffffffffffffffffffffff16815260200190815260200160002082908060018154018082558091505060019003906000526020600020016000909190919091505560046000815480929190610a459061262a565b9190505550813373ffffffffffffffffffffffffffffffffffffffff167f05366bffea3f76f153c29cbe1d66f48f35d0321be4ff5897a1b536e902adb76060025442604051610a95929190612672565b60405180910390a35050565b60056020528060005260406000206000915090508060000154908060010160009054906101000a900473ffffffffffffffffffffffffffffffffffffffff16908060020154908060030160009054906101000a900460ff16908060030160019054906101000a900460ff16905085565b600060035460045410610b59576040517f08c379a0000000000000000000000000000000000000000000000000000000008152600401610b50906122ed565b60405180910390fd5b600254600160009054906101000a900473ffffffffffffffffffffffffffffffffffffffff1673ffffffffffffffffffffffffffffffffffffffff166370a08231336040518263ffffffff167c0100000000000000000000000000000000000000000000000000000000028152600401610bd39190612097565b602060405180830381865afa158015610bf0573d6000803e3d6000fd5b505050506040513d601f19601f82011682018060405250810190610c149190612466565b1015610c55576040517f08c379a0000000000000000000000000000000000000000000000000000000008152600401610c4c906124df565b60405180910390fd5b6000806000905060005b600780549050811015610d7c576005600060078381548110610c8457610c8361269b565b5b9060005260206000200154815260200190815260200160002060030160019054906101000a900460ff168015610d3a5750600073ffffffffffffffffffffffffffffffffffffffff166005600060078481548110610ce557610ce461269b565b5b9060005260206000200154815260200190815260200160002060010160009054906101000a900473ffffffffffffffffffffffffffffffffffffffff1673ffffffffffffffffffffffffffffffffffffffff16145b15610d695760078181548110610d5357610d5261269b565b5b9060005260206000200154925060019150610d7c565b8080610d749061262a565b915050610c5f565b5080610dbd576040517f08c379a0000000000000000000000000000000000000000000000000000000008152600401610db490612716565b60405180910390fd5b600160009054906101000a900473ffffffffffffffffffffffffffffffffffffffff1673ffffffffffffffffffffffffffffffffffffffff166323b872dd33306002546040518463ffffffff167c0100000000000000000000000000000000000000000000000000000000028152600401610e3a939291906124ff565b6020604051808303816000875af1158015610e59573d6000803e3d6000fd5b505050506040513d601f19601f82011682018060405250810190610e7d9190612562565b610ebc576040517f08c379a0000000000000000000000000000000000000000000000000000000008152600401610eb3906125db565b60405180910390fd5b336005600084815260200190815260200160002060010160006101000a81548173ffffffffffffffffffffffffffffffffffffffff021916908373ffffffffffffffffffffffffffffffffffffffff160217905550426005600084815260200190815260200160002060020181905550600660003373ffffffffffffffffffffffffffffffffffffffff1673ffffffffffffffffffffffffffffffffffffffff16815260200190815260200160002082908060018154018082558091505060019003906000526020600020016000909190919091505560046000815480929190610fa59061262a565b9190505550813373ffffffffffffffffffffffffffffffffffffffff167f05366bffea3f76f153c29cbe1d66f48f35d0321be4ff5897a1b536e902adb76060025442604051610ff5929190612672565b60405180910390a3819250505090565b6007818154811061101557600080fd5b906000526020600020016000915090505481565b60008054906101000a900473ffffffffffffffffffffffffffffffffffffffff1673ffffffffffffffffffffffffffffffffffffffff163373ffffffffffffffffffffffffffffffffffffffff16146110b7576040517f08c379a00000000000000000000000000000000000000000000000000000000081526004016110ae906121ef565b60405180910390fd5b60005b8282905081101561131057600560008484848181106110dc576110db61269b565b5b90506020020135815260200190815260200160002060030160019054906101000a900460ff1615611142576040517f08c379a000000000000000000000000000000000000000000000000000000000815260040161113990612782565b60405180910390fd5b6040518060a001604052808484848181106111605761115f61269b565b5b905060200201358152602001600073ffffffffffffffffffffffffffffffffffffffff1681526020016000815260200160001515815260200160011515815250600560008585858181106111b7576111b661269b565b5b9050602002013581526020019081526020016000206000820151816000015560208201518160010160006101000a81548173ffffffffffffffffffffffffffffffffffffffff021916908373ffffffffffffffffffffffffffffffffffffffff1602179055506040820151816002015560608201518160030160006101000a81548160ff02191690831515021790555060808201518160030160016101000a81548160ff021916908315150217905550905050600783838381811061127f5761127e61269b565b5b9050602002013590806001815401808255809150506001900390600052602060002001600090919091909150558282828181106112bf576112be61269b565b5b905060200201357f0b4925df5dd8116ca4b5baabefa179f138d18e28f9ec96d84d70c857c6311f45426040516112f59190611e2a565b60405180910390a280806113089061262a565b9150506110ba565b505050565b60008054906101000a900473ffffffffffffffffffffffffffffffffffffffff1673ffffffffffffffffffffffffffffffffffffffff163373ffffffffffffffffffffffffffffffffffffffff16146113a3576040517f08c379a000000000000000000000000000000000000000000000000000000000815260040161139a906121ef565b60405180910390fd5b600160009054906101000a900473ffffffffffffffffffffffffffffffffffffffff1673ffffffffffffffffffffffffffffffffffffffff1663a9059cbb60008054906101000a900473ffffffffffffffffffffffffffffffffffffffff16836040518363ffffffff167c010000000000000000000000000000000000000000000000000000000002815260040161143c9291906127a2565b6020604051808303816000875af115801561145b573d6000803e3d6000fd5b505050506040513d601f19601f8201168201806040525081019061147f9190612562565b6114be576040517f08c379a00000000000000000000000000000000000000000000000000000000081526004016114b590612817565b60405180910390fd5b50565b6000806000806000600560008781526020019081526020016000206040518060a0016040529081600082015481526020016001820160009054906101000a900473ffffffffffffffffffffffffffffffffffffffff1673ffffffffffffffffffffffffffffffffffffffff1673ffffffffffffffffffffffffffffffffffffffff168152602001600282015481526020016003820160009054906101000a900460ff161515151581526020016003820160019054906101000a900460ff161515151581525050905080602001518160400151826060015183608001519450945094509450509193509193565b60006005600084815260200190815260200160002060030160019054906101000a900460ff16801561164057508173ffffffffffffffffffffffffffffffffffffffff166005600085815260200190815260200160002060010160009054906101000a900473ffffffffffffffffffffffffffffffffffffffff1673ffffffffffffffffffffffffffffffffffffffff16145b801561166d57506005600084815260200190815260200160002060030160009054906101000a900460ff16155b905092915050565b60008054906101000a900473ffffffffffffffffffffffffffffffffffffffff1681565b60006004546003546116ab9190612837565b905090565b60045481565b60035481565b60008054906101000a900473ffffffffffffffffffffffffffffffffffffffff1673ffffffffffffffffffffffffffffffffffffffff163373ffffffffffffffffffffffffffffffffffffffff161461174a576040517f08c379a0000000000000000000000000000000000000000000000000000000008152600401611741906121ef565b60405180910390fd5b60006002549050816002819055507f15819dd2fd9f6418b142e798d08a18d0bf06ea368f4480b7b0d3f75bd966bc4881834260405161178b9392919061286b565b60405180910390a15050565b60008054906101000a900473ffffffffffffffffffffffffffffffffffffffff1673ffffffffffffffffffffffffffffffffffffffff163373ffffffffffffffffffffffffffffffffffffffff1614611825576040517f08c379a000000000000000000000000000000000000000000000000000000000815260040161181c906121ef565b60405180910390fd5b600073ffffffffffffffffffffffffffffffffffffffff168173ffffffffffffffffffffffffffffffffffffffff1603611894576040517f08c379a000000000000000000000000000000000000000000000000000000000815260040161188b906128ee565b60405180910390fd5b806000806101000a81548173ffffffffffffffffffffffffffffffffffffffff021916908373ffffffffffffffffffffffffffffffffffffffff16021790555050565b600660205281600052604060002081815481106118f357600080fd5b90600052602060002001600091509150505481565b600160009054906101000a900473ffffffffffffffffffffffffffffffffffffffff1681565b60008054906101000a900473ffffffffffffffffffffffffffffffffffffffff1673ffffffffffffffffffffffffffffffffffffffff163373ffffffffffffffffffffffffffffffffffffffff16146119bc576040517f08c379a00000000000000000000000000000000000000000000000000000000081526004016119b3906121ef565b60405180910390fd5b806005600082815260200190815260200160002060030160019054906101000a900460ff16611a20576040517f08c379a0000000000000000000000000000000000000000000000000000000008152600401611a1790612359565b60405180910390fd5b6005600082815260200190815260200160002060030160009054906101000a900460ff1615611a84576040517f08c379a0000000000000000000000000000000000000000000000000000000008152600401611a7b906123c5565b60405180910390fd5b600073ffffffffffffffffffffffffffffffffffffffff166005600084815260200190815260200160002060010160009054906101000a900473ffffffffffffffffffffffffffffffffffffffff1673ffffffffffffffffffffffffffffffffffffffff1603611b29576040517f08c379a0000000000000000000000000000000000000000000000000000000008152600401611b209061295a565b60405180910390fd5b60016005600084815260200190815260200160002060030160006101000a81548160ff0219169083151502179055506005600083815260200190815260200160002060010160009054906101000a900473ffffffffffffffffffffffffffffffffffffffff1673ffffffffffffffffffffffffffffffffffffffff16827f84ca6dcf0f224f0e4a8c8fc275bdc5a85a06c03a6c1a3f56d0a700acd4be138042604051611bd59190611e2a565b60405180910390a35050565b60606007805480602002602001604051908101604052809291908181526020018280548015611c2f57602002820191906000526020600020905b815481526020019060010190808311611c1b575b5050505050905090565b600080fd5b600080fd5b600073ffffffffffffffffffffffffffffffffffffffff82169050919050565b6000611c6e82611c43565b9050919050565b611c7e81611c63565b8114611c8957600080fd5b50565b600081359050611c9b81611c75565b92915050565b600060208284031215611cb757611cb6611c39565b5b6000611cc584828501611c8c565b91505092915050565b600081519050919050565b600082825260208201905092915050565b6000819050602082019050919050565b6000819050919050565b611d0d81611cfa565b82525050565b6000611d1f8383611d04565b60208301905092915050565b6000602082019050919050565b6000611d4382611cce565b611d4d8185611cd9565b9350611d5883611cea565b8060005b83811015611d89578151611d708882611d13565b9750611d7b83611d2b565b925050600181019050611d5c565b5085935050505092915050565b60006020820190508181036000830152611db08184611d38565b905092915050565b6000819050919050565b611dcb81611db8565b8114611dd657600080fd5b50565b600081359050611de881611dc2565b92915050565b600060208284031215611e0457611e03611c39565b5b6000611e1284828501611dd9565b91505092915050565b611e2481611db8565b82525050565b6000602082019050611e3f6000830184611e1b565b92915050565b611e4e81611cfa565b8114611e5957600080fd5b50565b600081359050611e6b81611e45565b92915050565b600060208284031215611e8757611e86611c39565b5b6000611e9584828501611e5c565b91505092915050565b611ea781611cfa565b82525050565b611eb681611c63565b82525050565b60008115159050919050565b611ed181611ebc565b82525050565b600060a082019050611eec6000830188611e9e565b611ef96020830187611ead565b611f066040830186611e1b565b611f136060830185611ec8565b611f206080830184611ec8565b9695505050505050565b6000602082019050611f3f6000830184611e9e565b92915050565b600080fd5b600080fd5b600080fd5b60008083601f840112611f6a57611f69611f45565b5b8235905067ffffffffffffffff811115611f8757611f86611f4a565b5b602083019150836020820283011115611fa357611fa2611f4f565b5b9250929050565b60008060208385031215611fc157611fc0611c39565b5b600083013567ffffffffffffffff811115611fdf57611fde611c3e565b5b611feb85828601611f54565b92509250509250929050565b600060808201905061200c6000830187611ead565b6120196020830186611e1b565b6120266040830185611ec8565b6120336060830184611ec8565b95945050505050565b6000806040838503121561205357612052611c39565b5b600061206185828601611e5c565b925050602061207285828601611c8c565b9150509250929050565b60006020820190506120916000830184611ec8565b92915050565b60006020820190506120ac6000830184611ead565b92915050565b600080604083850312156120c9576120c8611c39565b5b60006120d785828601611c8c565b92505060206120e885828601611dd9565b9150509250929050565b6000819050919050565b600061211761211261210d84611c43565b6120f2565b611c43565b9050919050565b6000612129826120fc565b9050919050565b600061213b8261211e565b9050919050565b61214b81612130565b82525050565b60006020820190506121666000830184612142565b92915050565b600082825260208201905092915050565b7f4f6e6c79206f776e65722063616e2063616c6c20746869732066756e6374696f60008201527f6e00000000000000000000000000000000000000000000000000000000000000602082015250565b60006121d960218361216c565b91506121e48261217d565b604082019050919050565b60006020820190508181036000830152612208816121cc565b9050919050565b7f43616e6e6f742073657420746f74616c206c657373207468616e20736f6c642060008201527f7469636b65747300000000000000000000000000000000000000000000000000602082015250565b600061226b60278361216c565b91506122768261220f565b604082019050919050565b6000602082019050818103600083015261229a8161225e565b9050919050565b7f4e6f207469636b65747320617661696c61626c65000000000000000000000000600082015250565b60006122d760148361216c565b91506122e2826122a1565b602082019050919050565b60006020820190508181036000830152612306816122ca565b9050919050565b7f4861736820646f6573206e6f7420657869737400000000000000000000000000600082015250565b600061234360138361216c565b915061234e8261230d565b602082019050919050565b6000602082019050818103600083015261237281612336565b9050919050565b7f4861736820616c72656164792075736564000000000000000000000000000000600082015250565b60006123af60118361216c565b91506123ba82612379565b602082019050919050565b600060208201905081810360008301526123de816123a2565b9050919050565b7f4861736820616c72656164792070757263686173656400000000000000000000600082015250565b600061241b60168361216c565b9150612426826123e5565b602082019050919050565b6000602082019050818103600083015261244a8161240e565b9050919050565b60008151905061246081611dc2565b92915050565b60006020828403121561247c5761247b611c39565b5b600061248a84828501612451565b91505092915050565b7f496e73756666696369656e74204a4a436f696e2062616c616e63650000000000600082015250565b60006124c9601b8361216c565b91506124d482612493565b602082019050919050565b600060208201905081810360008301526124f8816124bc565b9050919050565b60006060820190506125146000830186611ead565b6125216020830185611ead565b61252e6040830184611e1b565b949350505050565b61253f81611ebc565b811461254a57600080fd5b50565b60008151905061255c81612536565b92915050565b60006020828403121561257857612577611c39565b5b60006125868482850161254d565b91505092915050565b7f4a4a436f696e207472616e73666572206661696c656400000000000000000000600082015250565b60006125c560168361216c565b91506125d08261258f565b602082019050919050565b600060208201905081810360008301526125f4816125b8565b9050919050565b7f4e487b7100000000000000000000000000000000000000000000000000000000600052601160045260246000fd5b600061263582611db8565b91507fffffffffffffffffffffffffffffffffffffffffffffffffffffffffffffffff8203612667576126666125fb565b5b600182019050919050565b60006040820190506126876000830185611e1b565b6126946020830184611e1b565b9392505050565b7f4e487b7100000000000000000000000000000000000000000000000000000000600052603260045260246000fd5b7f4e6f20617661696c61626c65207469636b657473000000000000000000000000600082015250565b600061270060148361216c565b915061270b826126ca565b602082019050919050565b6000602082019050818103600083015261272f816126f3565b9050919050565b7f4861736820616c72656164792065786973747300000000000000000000000000600082015250565b600061276c60138361216c565b915061277782612736565b602082019050919050565b6000602082019050818103600083015261279b8161275f565b9050919050565b60006040820190506127b76000830185611ead565b6127c46020830184611e1b565b9392505050565b7f5769746864726177616c206661696c6564000000000000000000000000000000600082015250565b600061280160118361216c565b915061280c826127cb565b602082019050919050565b60006020820190508181036000830152612830816127f4565b9050919050565b600061284282611db8565b915061284d83611db8565b9250828203905081811115612865576128646125fb565b5b92915050565b60006060820190506128806000830186611e1b565b61288d6020830185611e1b565b61289a6040830184611e1b565b949350505050565b7f496e76616c696420616464726573730000000000000000000000000000000000600082015250565b60006128d8600f8361216c565b91506128e3826128a2565b602082019050919050565b60006020820190508181036000830152612907816128cb565b9050919050565b7f48617368206e6f74207075726368617365642079657400000000000000000000600082015250565b600061294460168361216c565b915061294f8261290e565b602082019050919050565b6000602082019050818103600083015261297381612937565b905091905056fea2646970667358221220ae0d39ffeacba87afc099cb40b6d8ba18227bacbf297647516cedb057f2b411264736f6c63430008140033",
  "immutableReferences": {},
  "source": "// SPDX-License-Identifier: GPL-3.0\npragma solidity ^0.8.0;\n\ninterface IERC20 {\n    function transferFrom(address from, address to, uint256 amount) external returns (bool);\n    function transfer(address to, uint256 amount) external returns (bool);\n    function balanceOf(address account) external view returns (uint256);\n}\n\ncontract JJTicket {\n    // \n    address public owner;\n    IERC20 public jjCoin;\n    uint256 public ticketPrice;\n    uint256 public totalTickets;\n    uint256 public soldTickets;\n    \n    // hash\n    struct TicketHash {\n        bytes32 hashValue;\n        address buyer;\n        uint256 purchaseTime;\n        bool isUsed;\n        bool exists;\n    }\n    \n    // \n    mapping(bytes32 => TicketHash) public ticketHashes;\n    mapping(address => bytes32[]) public buyerHashes;\n    bytes32[] public allHashes;\n    \n    // \n    event TicketPurchased(\n        address indexed buyer,\n        bytes32 indexed ticketHash,\n        uint256 price,\n        uint256 timestamp\n    );\n    \n    event HashAdded(\n        bytes32 indexed hashValue,\n        uint256 timestamp\n    );\n    \n    event HashUsed(\n        bytes32 indexed hashValue,\n        address indexed buyer,\n        uint256 timestamp\n    );\n    \n    event PriceUpdated(\n        uint256 oldPrice,\n        uint256 newPrice,\n        uint256 timestamp\n    );\n    \n    // \n    modifier onlyOwner() {\n        require(msg.sender == owner, \"Only owner can call this function\");\n        _;\n    }\n    \n    modifier validHash(bytes32 _hash) {\n        require(ticketHashes[_hash].exists, \"Hash does not exist\");\n        require(!ticketHashes[_hash].isUsed, \"Hash already used\");\n        _;\n    }\n    \n    modifier hasAvailableTickets() {\n        require(soldTickets < totalTickets, \"No tickets available\");\n        _;\n    }\n    \n    // \n    constructor(\n        address _jjCoinAddress,\n        uint256 _ticketPrice,\n        uint256 _totalTickets\n    ) {\n        owner = msg.sender;\n        jjCoin = IERC20(_jjCoinAddress);\n        ticketPrice = _ticketPrice;\n        totalTickets = _totalTickets;\n        soldTickets = 0;\n    }\n    \n    // hash\n    function addTicketHashes(bytes32[] calldata _hashes) external onlyOwner {\n        for (uint256 i = 0; i < _hashes.length; i++) {\n            require(!ticketHashes[_hashes[i]].exists, \"Hash already exists\");\n            \n            ticketHashes[_hashes[i]] = TicketHash({\n                hashValue: _hashes[i],\n                buyer: address(0),\n                purchaseTime: 0,\n                isUsed: false,\n                exists: true\n            });\n            \n            allHashes.push(_hashes[i]);\n            emit HashAdded(_hashes[i], block.timestamp);\n        }\n    }\n    \n    // hash\n    function purchaseTicket(bytes32 _desiredHash) external hasAvailableTickets validHash(_desiredHash) {\n        require(ticketHashes[_desiredHash].buyer == address(0), \"Hash already purchased\");\n        \n        // JJCoin\n        require(jjCoin.balanceOf(msg.sender) >= ticketPrice, \"Insufficient JJCoin balance\");\n        \n        // JJCoin\n        require(jjCoin.transferFrom(msg.sender, address(this), ticketPrice), \"JJCoin transfer failed\");\n        \n        // hash\n        ticketHashes[_desiredHash].buyer = msg.sender;\n        ticketHashes[_desiredHash].purchaseTime = block.timestamp;\n        \n        // \n        buyerHashes[msg.sender].push(_desiredHash);\n        \n        // \n        soldTickets++;\n        \n        // \n        emit TicketPurchased(msg.sender, _desiredHash, ticketPrice, block.timestamp);\n    }\n    \n    // hash\n    function purchaseRandomTicket() external hasAvailableTickets returns (bytes32) {\n        require(jjCoin.balanceOf(msg.sender) >= ticketPrice, \"Insufficient JJCoin balance\");\n        \n        // hash\n        bytes32 availableHash;\n        bool found = false;\n        \n        for (uint256 i = 0; i < allHashes.length; i++) {\n            if (ticketHashes[allHashes[i]].exists && \n                ticketHashes[allHashes[i]].buyer == address(0)) {\n                availableHash = allHashes[i];\n                found = true;\n                break;\n            }\n        }\n        \n        require(found, \"No available tickets\");\n        \n        // \n        require(jjCoin.transferFrom(msg.sender, address(this), ticketPrice), \"JJCoin transfer failed\");\n        \n        ticketHashes[availableHash].buyer = msg.sender;\n        ticketHashes[availableHash].purchaseTime = block.timestamp;\n        buyerHashes[msg.sender].push(availableHash);\n        soldTickets++;\n        \n        emit TicketPurchased(msg.sender, availableHash, ticketPrice, block.timestamp);\n        \n        return availableHash;\n    }\n    \n    // Web2hash\n    function markHashAsUsed(bytes32 _hash) external onlyOwner validHash(_hash) {\n        require(ticketHashes[_hash].buyer != address(0), \"Hash not purchased yet\");\n        \n        ticketHashes[_hash].isUsed = true;\n        emit HashUsed(_hash, ticketHashes[_hash].buyer, block.timestamp);\n    }\n    \n    // \n    function getTicketInfo(bytes32 _hash) external view returns (\n        address buyer,\n        uint256 purchaseTime,\n        bool isUsed,\n        bool exists\n    ) {\n        TicketHash memory ticket = ticketHashes[_hash];\n        return (ticket.buyer, ticket.purchaseTime, ticket.isUsed, ticket.exists);\n    }\n    \n    function getBuyerHashes(address _buyer) external view returns (bytes32[] memory) {\n        return buyerHashes[_buyer];\n    }\n    \n    function getAvailableTicketsCount() external view returns (uint256) {\n        return totalTickets - soldTickets;\n    }\n    \n    function getAllHashes() external view returns (bytes32[] memory) {\n        return allHashes;\n    }\n    \n    // hashweb2\n    function verifyTicketHash(bytes32 _hash, address _buyer) external view returns (bool) {\n        return ticketHashes[_hash].exists && \n               ticketHashes[_hash].buyer == _buyer && \n               !ticketHashes[_hash].isUsed;\n    }\n    \n    // \n    function updateTicketPrice(uint256 _newPrice) external onlyOwner {\n        uint256 oldPrice = ticketPrice;\n        ticketPrice = _newPrice;\n        emit PriceUpdated(oldPrice, _newPrice, block.timestamp);\n    }\n    \n    function updateTotalTickets(uint256 _newTotal) external onlyOwner {\n        require(_newTotal >= soldTickets, \"Cannot set total less than sold tickets\");\n        totalTickets = _newTotal;\n    }\n    \n    function withdrawJJCoin(uint256 _amount) external onlyOwner {\n        require(jjCoin.transfer(owner, _amount), \"Withdrawal failed\");\n    }\n    \n    // \n    function transferOwnership(address _newOwner) external onlyOwner {\n        require(_newOwner != address(0), \"Invalid address\");\n        owner = _newOwner;\n    }\n}\n\n",
  "sourcePath": "/Users/edy/fs/my-truffle-demo/contracts/JJTicket.sol",
  "compiler": {
    "name": "solc",
    "version": "0.8.20+commit.a1b79de6.Emscripten.clang"
  },
  "schemaVersion": "3.4.16",
  "updatedAt": "2025-06-02T13:06:01.875Z",
  "networkType": "ethereum",
  "devdoc": {
    "kind": "dev",
    "methods": {},
    "version": 1
  },
  "userdoc": {
    "kind": "user",
    "methods": {},
    "version": 1
  }
}