{
  "contractName": "Ioc",
  "abi": [
    {
      "inputs": [],
      "stateMutability": "nonpayable",
      "type": "constructor"
    },
    {
      "anonymous": false,
      "inputs": [
        {
          "indexed": false,
          "internalType": "string",
          "name": "name",
          "type": "string"
        },
        {
          "indexed": false,
          "internalType": "uint256",
          "name": "amount",
          "type": "uint256"
        }
      ],
      "name": "CollectEth",
      "type": "event"
    },
    {
      "inputs": [],
      "name": "balance",
      "outputs": [
        {
          "internalType": "uint256",
          "name": "",
          "type": "uint256"
        }
      ],
      "stateMutability": "view",
      "type": "function",
      "constant": true
    },
    {
      "inputs": [],
      "name": "name",
      "outputs": [
        {
          "internalType": "string",
          "name": "",
          "type": "string"
        }
      ],
      "stateMutability": "view",
      "type": "function",
      "constant": true
    },
    {
      "inputs": [],
      "name": "getOwner",
      "outputs": [
        {
          "internalType": "address",
          "name": "",
          "type": "address"
        }
      ],
      "stateMutability": "view",
      "type": "function",
      "constant": true
    },
    {
      "inputs": [],
      "name": "getBalance",
      "outputs": [
        {
          "internalType": "uint256",
          "name": "",
          "type": "uint256"
        }
      ],
      "stateMutability": "view",
      "type": "function",
      "constant": true
    },
    {
      "inputs": [],
      "name": "collectEth",
      "outputs": [],
      "stateMutability": "payable",
      "type": "function",
      "payable": true
    },
    {
      "inputs": [
        {
          "internalType": "uint256",
          "name": "amount",
          "type": "uint256"
        },
        {
          "internalType": "address",
          "name": "_to",
          "type": "address"
        }
      ],
      "name": "withdraw",
      "outputs": [],
      "stateMutability": "nonpayable",
      "type": "function"
    }
  ],
  "bytecode": "0x608060405234801561001057600080fd5b50336000806101000a81548173ffffffffffffffffffffffffffffffffffffffff021916908373ffffffffffffffffffffffffffffffffffffffff16021790555061085f806100606000396000f3fe608060405260043610610071576000357c010000000000000000000000000000000000000000000000000000000090048062f714ce1461007657806306fdde031461009f57806312065fe0146100ca578063893d20e8146100f5578063b69ef8a814610120578063fada5da11461014b575b600080fd5b34801561008257600080fd5b5061009d600480360381019061009891906104d8565b610155565b005b3480156100ab57600080fd5b506100b46102a1565b6040516100c191906105a8565b60405180910390f35b3480156100d657600080fd5b506100df6102da565b6040516100ec91906105d9565b60405180910390f35b34801561010157600080fd5b5061010a6102f9565b6040516101179190610603565b60405180910390f35b34801561012c57600080fd5b50610135610322565b60405161014291906105d9565b60405180910390f35b610153610328565b005b60008054906101000a900473ffffffffffffffffffffffffffffffffffffffff1673ffffffffffffffffffffffffffffffffffffffff163373ffffffffffffffffffffffffffffffffffffffff16146101e3576040517f08c379a00000000000000000000000000000000000000000000000000000000081526004016101da9061066a565b60405180910390fd5b3073ffffffffffffffffffffffffffffffffffffffff163182111561023d576040517f08c379a0000000000000000000000000000000000000000000000000000000008152600401610234906106d6565b60405180910390fd5b8073ffffffffffffffffffffffffffffffffffffffff166108fc839081150290604051600060405180830381858888f19350505050158015610283573d6000803e3d6000fd5b5081600260008282546102969190610725565b925050819055505050565b6040518060400160405280600381526020017f494f43000000000000000000000000000000000000000000000000000000000081525081565b60003073ffffffffffffffffffffffffffffffffffffffff1631905090565b60008060009054906101000a900473ffffffffffffffffffffffffffffffffffffffff16905090565b60025481565b60008054906101000a900473ffffffffffffffffffffffffffffffffffffffff1673ffffffffffffffffffffffffffffffffffffffff163373ffffffffffffffffffffffffffffffffffffffff16036103b6576040517f08c379a00000000000000000000000000000000000000000000000000000000081526004016103ad906107a5565b60405180910390fd5b34600260008282546103c891906107c5565b925050819055507f4bc6037091d132c11516f1fa574b7e8d2e836f0ea702ecee973dd514810688256040518060400160405280600381526020017f494f430000000000000000000000000000000000000000000000000000000000815250346040516104359291906107f9565b60405180910390a1565b600080fd5b6000819050919050565b61045781610444565b811461046257600080fd5b50565b6000813590506104748161044e565b92915050565b600073ffffffffffffffffffffffffffffffffffffffff82169050919050565b60006104a58261047a565b9050919050565b6104b58161049a565b81146104c057600080fd5b50565b6000813590506104d2816104ac565b92915050565b600080604083850312156104ef576104ee61043f565b5b60006104fd85828601610465565b925050602061050e858286016104c3565b9150509250929050565b600081519050919050565b600082825260208201905092915050565b60005b83811015610552578082015181840152602081019050610537565b60008484015250505050565b6000601f19601f8301169050919050565b600061057a82610518565b6105848185610523565b9350610594818560208601610534565b61059d8161055e565b840191505092915050565b600060208201905081810360008301526105c2818461056f565b905092915050565b6105d381610444565b82525050565b60006020820190506105ee60008301846105ca565b92915050565b6105fd8161049a565b82525050565b600060208201905061061860008301846105f4565b92915050565b7f6e6f74206f776e65720000000000000000000000000000000000000000000000600082015250565b6000610654600983610523565b915061065f8261061e565b602082019050919050565b6000602082019050818103600083015261068381610647565b9050919050565b7f4e6f7420656e6f7567682045544820746f207769746864726177210000000000600082015250565b60006106c0601b83610523565b91506106cb8261068a565b602082019050919050565b600060208201905081810360008301526106ef816106b3565b9050919050565b7f4e487b7100000000000000000000000000000000000000000000000000000000600052601160045260246000fd5b600061073082610444565b915061073b83610444565b9250828203905081811115610753576107526106f6565b5b92915050565b7f6e6f7420616c6c6f77207472616e6665722073656c6600000000000000000000600082015250565b600061078f601683610523565b915061079a82610759565b602082019050919050565b600060208201905081810360008301526107be81610782565b9050919050565b60006107d082610444565b91506107db83610444565b92508282019050808211156107f3576107f26106f6565b5b92915050565b60006040820190508181036000830152610813818561056f565b905061082260208301846105ca565b939250505056fea264697066735822122007eb9da76651337bebe69725d71394dcd58be94d0dac6de2ba8c743abbda869f64736f6c63430008140033",
  "immutableReferences": {},
  "source": "// SPDX-License-Identifier: GPL-3.0\npragma solidity >=0.4.22 <0.9.0;\n\ncontract Ioc {\n    string public constant name = \"IOC\";\n    address payable private owner;\n    address payable private _from;\n    uint256 public balance;\n    event CollectEth (string name, uint256 amount);\n\n    constructor() {\n        owner = payable (msg.sender);\n    }\n\n    function getOwner() public view returns (address) {\n        return owner;\n    }\n\n    function getBalance () public view returns (uint256) {\n        return address(this).balance;\n    }\n\n    function collectEth () public payable {\n        require(msg.sender != owner, \"not allow tranfer self\");\n        balance += msg.value;\n        emit CollectEth (name, msg.value);\n    }\n\n    function withdraw (uint256 amount, address _to) public {\n        require(msg.sender == owner, \"not owner\");\n        require(amount <= address(this).balance, \"Not enough ETH to withdraw!\");\n        payable (_to).transfer(amount);\n        balance -= amount;\n    }\n}",
  "sourcePath": "/Users/edy/fs/my-truffle-demo/contracts/ioc.sol",
  "compiler": {
    "name": "solc",
    "version": "0.8.20+commit.a1b79de6.Emscripten.clang"
  },
  "schemaVersion": "3.4.16",
  "updatedAt": "2025-05-25T02:11:18.313Z",
  "networkType": "ethereum",
  "devdoc": {
    "kind": "dev",
    "methods": {},
    "version": 1
  },
  "userdoc": {
    "kind": "user",
    "methods": {},
    "version": 1
  }
}