{
  "contractName": "JJCoin",
  "abi": [
    {
      "inputs": [],
      "stateMutability": "nonpayable",
      "type": "constructor"
    },
    {
      "anonymous": false,
      "inputs": [
        {
          "indexed": true,
          "internalType": "address",
          "name": "owner",
          "type": "address"
        },
        {
          "indexed": true,
          "internalType": "address",
          "name": "spender",
          "type": "address"
        },
        {
          "indexed": false,
          "internalType": "uint256",
          "name": "value",
          "type": "uint256"
        }
      ],
      "name": "Approval",
      "type": "event"
    },
    {
      "anonymous": false,
      "inputs": [
        {
          "indexed": true,
          "internalType": "address",
          "name": "to",
          "type": "address"
        },
        {
          "indexed": false,
          "internalType": "uint256",
          "name": "amount",
          "type": "uint256"
        }
      ],
      "name": "TokensMinted",
      "type": "event"
    },
    {
      "anonymous": false,
      "inputs": [
        {
          "indexed": true,
          "internalType": "address",
          "name": "buyer",
          "type": "address"
        },
        {
          "indexed": false,
          "internalType": "uint256",
          "name": "ethAmount",
          "type": "uint256"
        },
        {
          "indexed": false,
          "internalType": "uint256",
          "name": "tokenAmount",
          "type": "uint256"
        }
      ],
      "name": "TokensPurchased",
      "type": "event"
    },
    {
      "anonymous": false,
      "inputs": [
        {
          "indexed": true,
          "internalType": "address",
          "name": "from",
          "type": "address"
        },
        {
          "indexed": true,
          "internalType": "address",
          "name": "to",
          "type": "address"
        },
        {
          "indexed": false,
          "internalType": "uint256",
          "name": "value",
          "type": "uint256"
        }
      ],
      "name": "Transfer",
      "type": "event"
    },
    {
      "stateMutability": "payable",
      "type": "fallback",
      "payable": true
    },
    {
      "inputs": [
        {
          "internalType": "address",
          "name": "",
          "type": "address"
        },
        {
          "internalType": "address",
          "name": "",
          "type": "address"
        }
      ],
      "name": "allowance",
      "outputs": [
        {
          "internalType": "uint256",
          "name": "",
          "type": "uint256"
        }
      ],
      "stateMutability": "view",
      "type": "function",
      "constant": true
    },
    {
      "inputs": [
        {
          "internalType": "address",
          "name": "",
          "type": "address"
        }
      ],
      "name": "balanceOf",
      "outputs": [
        {
          "internalType": "uint256",
          "name": "",
          "type": "uint256"
        }
      ],
      "stateMutability": "view",
      "type": "function",
      "constant": true
    },
    {
      "inputs": [],
      "name": "decimals",
      "outputs": [
        {
          "internalType": "uint8",
          "name": "",
          "type": "uint8"
        }
      ],
      "stateMutability": "view",
      "type": "function",
      "constant": true
    },
    {
      "inputs": [],
      "name": "name",
      "outputs": [
        {
          "internalType": "string",
          "name": "",
          "type": "string"
        }
      ],
      "stateMutability": "view",
      "type": "function",
      "constant": true
    },
    {
      "inputs": [],
      "name": "owner",
      "outputs": [
        {
          "internalType": "address",
          "name": "",
          "type": "address"
        }
      ],
      "stateMutability": "view",
      "type": "function",
      "constant": true
    },
    {
      "inputs": [],
      "name": "symbol",
      "outputs": [
        {
          "internalType": "string",
          "name": "",
          "type": "string"
        }
      ],
      "stateMutability": "view",
      "type": "function",
      "constant": true
    },
    {
      "inputs": [],
      "name": "tokenPrice",
      "outputs": [
        {
          "internalType": "uint256",
          "name": "",
          "type": "uint256"
        }
      ],
      "stateMutability": "view",
      "type": "function",
      "constant": true
    },
    {
      "inputs": [],
      "name": "totalSupply",
      "outputs": [
        {
          "internalType": "uint256",
          "name": "",
          "type": "uint256"
        }
      ],
      "stateMutability": "view",
      "type": "function",
      "constant": true
    },
    {
      "stateMutability": "payable",
      "type": "receive",
      "payable": true
    },
    {
      "inputs": [
        {
          "internalType": "address",
          "name": "_to",
          "type": "address"
        },
        {
          "internalType": "uint256",
          "name": "_value",
          "type": "uint256"
        }
      ],
      "name": "transfer",
      "outputs": [
        {
          "internalType": "bool",
          "name": "success",
          "type": "bool"
        }
      ],
      "stateMutability": "nonpayable",
      "type": "function"
    },
    {
      "inputs": [
        {
          "internalType": "address",
          "name": "_spender",
          "type": "address"
        },
        {
          "internalType": "uint256",
          "name": "_value",
          "type": "uint256"
        }
      ],
      "name": "approve",
      "outputs": [
        {
          "internalType": "bool",
          "name": "success",
          "type": "bool"
        }
      ],
      "stateMutability": "nonpayable",
      "type": "function"
    },
    {
      "inputs": [
        {
          "internalType": "address",
          "name": "_from",
          "type": "address"
        },
        {
          "internalType": "address",
          "name": "_to",
          "type": "address"
        },
        {
          "internalType": "uint256",
          "name": "_value",
          "type": "uint256"
        }
      ],
      "name": "transferFrom",
      "outputs": [
        {
          "internalType": "bool",
          "name": "success",
          "type": "bool"
        }
      ],
      "stateMutability": "nonpayable",
      "type": "function"
    },
    {
      "inputs": [],
      "name": "buyTokens",
      "outputs": [],
      "stateMutability": "payable",
      "type": "function",
      "payable": true
    },
    {
      "inputs": [
        {
          "internalType": "address",
          "name": "_to",
          "type": "address"
        },
        {
          "internalType": "uint256",
          "name": "_amount",
          "type": "uint256"
        }
      ],
      "name": "mint",
      "outputs": [],
      "stateMutability": "nonpayable",
      "type": "function"
    },
    {
      "inputs": [
        {
          "internalType": "uint256",
          "name": "_amount",
          "type": "uint256"
        }
      ],
      "name": "mintToContract",
      "outputs": [],
      "stateMutability": "nonpayable",
      "type": "function"
    },
    {
      "inputs": [
        {
          "internalType": "address[]",
          "name": "_recipients",
          "type": "address[]"
        },
        {
          "internalType": "uint256[]",
          "name": "_amounts",
          "type": "uint256[]"
        }
      ],
      "name": "mintBatch",
      "outputs": [],
      "stateMutability": "nonpayable",
      "type": "function"
    },
    {
      "inputs": [],
      "name": "getTokenPrice",
      "outputs": [
        {
          "internalType": "uint256",
          "name": "",
          "type": "uint256"
        }
      ],
      "stateMutability": "view",
      "type": "function",
      "constant": true
    },
    {
      "inputs": [
        {
          "internalType": "uint256",
          "name": "_ethAmount",
          "type": "uint256"
        }
      ],
      "name": "calculateTokenAmount",
      "outputs": [
        {
          "internalType": "uint256",
          "name": "",
          "type": "uint256"
        }
      ],
      "stateMutability": "view",
      "type": "function",
      "constant": true
    },
    {
      "inputs": [],
      "name": "withdrawETH",
      "outputs": [],
      "stateMutability": "nonpayable",
      "type": "function"
    },
    {
      "inputs": [
        {
          "internalType": "uint256",
          "name": "_newPrice",
          "type": "uint256"
        }
      ],
      "name": "updateTokenPrice",
      "outputs": [],
      "stateMutability": "nonpayable",
      "type": "function"
    },
    {
      "inputs": [],
      "name": "getContractBalance",
      "outputs": [
        {
          "internalType": "uint256",
          "name": "",
          "type": "uint256"
        }
      ],
      "stateMutability": "view",
      "type": "function",
      "constant": true
    },
    {
      "inputs": [],
      "name": "getContractTokenBalance",
      "outputs": [
        {
          "internalType": "uint256",
          "name": "",
          "type": "uint256"
        }
      ],
      "stateMutability": "view",
      "type": "function",
      "constant": true
    },
    {
      "inputs": [
        {
          "internalType": "uint256",
          "name": "_amount",
          "type": "uint256"
        }
      ],
      "name": "addTokensToContract",
      "outputs": [],
      "stateMutability": "nonpayable",
      "type": "function"
    },
    {
      "inputs": [
        {
          "internalType": "uint256",
          "name": "_amount",
          "type": "uint256"
        }
      ],
      "name": "withdrawTokensFromContract",
      "outputs": [],
      "stateMutability": "nonpayable",
      "type": "function"
    },
    {
      "inputs": [],
      "name": "isOwner",
      "outputs": [
        {
          "internalType": "bool",
          "name": "",
          "type": "bool"
        }
      ],
      "stateMutability": "view",
      "type": "function",
      "constant": true
    }
  ],
  "bytecode": "0x60806040523480156200001157600080fd5b506040518060400160405280600681526020017f4a4a436f696e00000000000000000000000000000000000000000000000000008152506000908162000058919062000548565b506040518060400160405280600381526020017f4a4a430000000000000000000000000000000000000000000000000000000000815250600190816200009f919062000548565b506012600260006101000a81548160ff021916908360ff160217905550600260009054906101000a900460ff16600a620000da9190620007bf565b62033450620000ea919062000810565b60038190555033600460006101000a81548173ffffffffffffffffffffffffffffffffffffffff021916908373ffffffffffffffffffffffffffffffffffffffff16021790555066016bcc41e90000600581905550600060026003546200015291906200088a565b9050600081600354620001669190620008c2565b905081600660003373ffffffffffffffffffffffffffffffffffffffff1673ffffffffffffffffffffffffffffffffffffffff1681526020019081526020016000208190555080600660003073ffffffffffffffffffffffffffffffffffffffff1673ffffffffffffffffffffffffffffffffffffffff168152602001908152602001600020819055503373ffffffffffffffffffffffffffffffffffffffff16600073ffffffffffffffffffffffffffffffffffffffff167fddf252ad1be2c89b69c2b068fc378daa952ba7f163c4a11628f55a4df523b3ef846040516200025091906200090e565b60405180910390a33073ffffffffffffffffffffffffffffffffffffffff16600073ffffffffffffffffffffffffffffffffffffffff167fddf252ad1be2c89b69c2b068fc378daa952ba7f163c4a11628f55a4df523b3ef83604051620002b891906200090e565b60405180910390a350506200092b565b600081519050919050565b7f4e487b7100000000000000000000000000000000000000000000000000000000600052604160045260246000fd5b7f4e487b7100000000000000000000000000000000000000000000000000000000600052602260045260246000fd5b600060028204905060018216806200034a57607f821691505b60208210810362000360576200035f62000302565b5b50919050565b60008190508160005260206000209050919050565b60006020601f8301049050919050565b60008160020a8302905092915050565b600060088302620003cd7fffffffffffffffffffffffffffffffffffffffffffffffffffffffffffffffff826200038b565b620003d986836200038b565b95508019841693508086168417925050509392505050565b6000819050919050565b6000819050919050565b600062000426620004206200041a84620003f1565b620003fb565b620003f1565b9050919050565b6000819050919050565b620004428362000405565b6200045a62000451826200042d565b8484546200039b565b825550505050565b600090565b6200047162000462565b6200047e81848462000437565b505050565b5b81811015620004a6576200049a60008262000467565b60018101905062000484565b5050565b601f821115620004f557620004bf8162000366565b620004ca846200037b565b81016020851015620004da578190505b620004f2620004e9856200037b565b83018262000483565b50505b505050565b60008160020a8304905092915050565b60006200051d60001984600802620004fa565b1980831691505092915050565b60006200053883836200050a565b9150826002028217905092915050565b6200055382620002c8565b67ffffffffffffffff8111156200056f576200056e620002d3565b5b6200057b825462000331565b62000588828285620004aa565b600060209050601f831160018114620005c05760008415620005ab578287015190505b620005b785826200052a565b86555062000627565b601f198416620005d08662000366565b60005b82811015620005fa57848901518255600182019150602085019450602081019050620005d3565b868310156200061a578489015162000616601f8916826200050a565b8355505b6001600288020188555050505b505050505050565b7f4e487b7100000000000000000000000000000000000000000000000000000000600052601160045260246000fd5b6000600282049050919050565b6000808291508390505b6001851115620006bd578086048111156200069557620006946200062f565b5b6001851615620006a55780820291505b8081029050620006b5856200065e565b945062000675565b94509492505050565b600082620006d85760019050620007ab565b81620006e85760009050620007ab565b81600181146200070157600281146200070c5762000742565b6001915050620007ab565b60ff8411156200072157620007206200062f565b5b8360020a9150848211156200073b576200073a6200062f565b5b50620007ab565b5060208310610133831016604e8410600b84101617156200077c5782820a9050838111156200077657620007756200062f565b5b620007ab565b6200078b84848460016200066b565b92509050818404811115620007a557620007a46200062f565b5b81810290505b9392505050565b600060ff82169050919050565b6000620007cc82620003f1565b9150620007d983620007b2565b9250620008087fffffffffffffffffffffffffffffffffffffffffffffffffffffffffffffffff8484620006c6565b905092915050565b60006200081d82620003f1565b91506200082a83620003f1565b92508282026200083a81620003f1565b915082820484148315176200085457620008536200062f565b5b5092915050565b7f4e487b7100000000000000000000000000000000000000000000000000000000600052601260045260246000fd5b60006200089782620003f1565b9150620008a483620003f1565b925082620008b757620008b66200085b565b5b828204905092915050565b6000620008cf82620003f1565b9150620008dc83620003f1565b9250828203905081811115620008f757620008f66200062f565b5b92915050565b6200090881620003f1565b82525050565b6000602082019050620009256000830184620008fd565b92915050565b61301f806200093b6000396000f3fe60806040526004361061016c576000357c0100000000000000000000000000000000000000000000000000000000900480637c88e3d9116100d3578063a9059cbb1161008c578063a9059cbb146104cb578063c0a398c114610508578063d0febe4c14610531578063dd62ed3e1461053b578063e086e5ec14610578578063ffd4f4b21461058f5761017b565b80637c88e3d9146103b95780637ff9b596146103e25780638da5cb5b1461040d5780638f32d59b1461043857806395d89b4114610463578063a24bcf461461048e5761017b565b8063317d945311610125578063317d9453146102a957806340c10f19146102d45780634b94f50e146102fd578063676c0d77146103285780636f9fb98a1461035157806370a082311461037c5761017b565b806306fdde0314610185578063095ea7b3146101b057806318160ddd146101ed5780631f315a3c1461021857806323b872dd14610241578063313ce5671461027e5761017b565b3661017b576101796105b8565b005b6101836105b8565b005b34801561019157600080fd5b5061019a610819565b6040516101a7919061209d565b60405180910390f35b3480156101bc57600080fd5b506101d760048036038101906101d29190612167565b6108a7565b6040516101e491906121c2565b60405180910390f35b3480156101f957600080fd5b50610202610999565b60405161020f91906121ec565b60405180910390f35b34801561022457600080fd5b5061023f600480360381019061023a9190612207565b61099f565b005b34801561024d57600080fd5b5061026860048036038101906102639190612234565b610bc5565b60405161027591906121c2565b60405180910390f35b34801561028a57600080fd5b50610293610f25565b6040516102a091906122a3565b60405180910390f35b3480156102b557600080fd5b506102be610f38565b6040516102cb91906121ec565b60405180910390f35b3480156102e057600080fd5b506102fb60048036038101906102f69190612167565b610f7f565b005b34801561030957600080fd5b506103126111e8565b60405161031f91906121ec565b60405180910390f35b34801561033457600080fd5b5061034f600480360381019061034a9190612207565b6111f2565b005b34801561035d57600080fd5b506103666112cf565b60405161037391906121ec565b60405180910390f35b34801561038857600080fd5b506103a3600480360381019061039e91906122be565b6112ee565b6040516103b091906121ec565b60405180910390f35b3480156103c557600080fd5b506103e060048036038101906103db91906124f6565b611306565b005b3480156103ee57600080fd5b506103f7611701565b60405161040491906121ec565b60405180910390f35b34801561041957600080fd5b50610422611707565b60405161042f919061257d565b60405180910390f35b34801561044457600080fd5b5061044d61172d565b60405161045a91906121c2565b60405180910390f35b34801561046f57600080fd5b50610478611785565b604051610485919061209d565b60405180910390f35b34801561049a57600080fd5b506104b560048036038101906104b09190612207565b611813565b6040516104c291906121ec565b60405180910390f35b3480156104d757600080fd5b506104f260048036038101906104ed9190612167565b611850565b6040516104ff91906121c2565b60405180910390f35b34801561051457600080fd5b5061052f600480360381019061052a9190612207565b611a5d565b005b6105396105b8565b005b34801561054757600080fd5b50610562600480360381019061055d9190612598565b611c56565b60405161056f91906121ec565b60405180910390f35b34801561058457600080fd5b5061058d611c7b565b005b34801561059b57600080fd5b506105b660048036038101906105b19190612207565b611de7565b005b600034116105fb576040517f08c379a00000000000000000000000000000000000000000000000000000000081526004016105f29061264a565b60405180910390fd5b6000600554600260009054906101000a900460ff16600a61061c91906127cc565b346106279190612817565b6106319190612888565b905080600660003073ffffffffffffffffffffffffffffffffffffffff1673ffffffffffffffffffffffffffffffffffffffff1681526020019081526020016000205410156106b5576040517f08c379a00000000000000000000000000000000000000000000000000000000081526004016106ac90612905565b60405180910390fd5b80600660003073ffffffffffffffffffffffffffffffffffffffff1673ffffffffffffffffffffffffffffffffffffffff16815260200190815260200160002060008282546107049190612925565b9250508190555080600660003373ffffffffffffffffffffffffffffffffffffffff1673ffffffffffffffffffffffffffffffffffffffff168152602001908152602001600020600082825461075a9190612959565b925050819055503373ffffffffffffffffffffffffffffffffffffffff163073ffffffffffffffffffffffffffffffffffffffff167fddf252ad1be2c89b69c2b068fc378daa952ba7f163c4a11628f55a4df523b3ef836040516107be91906121ec565b60405180910390a33373ffffffffffffffffffffffffffffffffffffffff167f8fafebcaf9d154343dad25669bfa277f4fbacd7ac6b0c4fed522580e040a0f33348360405161080e92919061298d565b60405180910390a250565b60008054610826906129e5565b80601f0160208091040260200160405190810160405280929190818152602001828054610852906129e5565b801561089f5780601f106108745761010080835404028352916020019161089f565b820191906000526020600020905b81548152906001019060200180831161088257829003601f168201915b505050505081565b600081600760003373ffffffffffffffffffffffffffffffffffffffff1673ffffffffffffffffffffffffffffffffffffffff16815260200190815260200160002060008573ffffffffffffffffffffffffffffffffffffffff1673ffffffffffffffffffffffffffffffffffffffff168152602001908152602001600020819055508273ffffffffffffffffffffffffffffffffffffffff163373ffffffffffffffffffffffffffffffffffffffff167f8c5be1e5ebec7d5bd14f71427d1e84f3dd0314c0f7b2291e5b200ac8c7c3b9258460405161098791906121ec565b60405180910390a36001905092915050565b60035481565b600460009054906101000a900473ffffffffffffffffffffffffffffffffffffffff1673ffffffffffffffffffffffffffffffffffffffff163373ffffffffffffffffffffffffffffffffffffffff1614610a2f576040517f08c379a0000000000000000000000000000000000000000000000000000000008152600401610a2690612a88565b60405180910390fd5b80600660003373ffffffffffffffffffffffffffffffffffffffff1673ffffffffffffffffffffffffffffffffffffffff168152602001908152602001600020541015610ab1576040517f08c379a0000000000000000000000000000000000000000000000000000000008152600401610aa890612af4565b60405180910390fd5b80600660003373ffffffffffffffffffffffffffffffffffffffff1673ffffffffffffffffffffffffffffffffffffffff1681526020019081526020016000206000828254610b009190612925565b9250508190555080600660003073ffffffffffffffffffffffffffffffffffffffff1673ffffffffffffffffffffffffffffffffffffffff1681526020019081526020016000206000828254610b569190612959565b925050819055503073ffffffffffffffffffffffffffffffffffffffff163373ffffffffffffffffffffffffffffffffffffffff167fddf252ad1be2c89b69c2b068fc378daa952ba7f163c4a11628f55a4df523b3ef83604051610bba91906121ec565b60405180910390a350565b60008073ffffffffffffffffffffffffffffffffffffffff168373ffffffffffffffffffffffffffffffffffffffff1603610c35576040517f08c379a0000000000000000000000000000000000000000000000000000000008152600401610c2c90612b60565b60405180910390fd5b81600660008673ffffffffffffffffffffffffffffffffffffffff1673ffffffffffffffffffffffffffffffffffffffff168152602001908152602001600020541015610cb7576040517f08c379a0000000000000000000000000000000000000000000000000000000008152600401610cae90612bcc565b60405180910390fd5b81600760008673ffffffffffffffffffffffffffffffffffffffff1673ffffffffffffffffffffffffffffffffffffffff16815260200190815260200160002060003373ffffffffffffffffffffffffffffffffffffffff1673ffffffffffffffffffffffffffffffffffffffff168152602001908152602001600020541015610d76576040517f08c379a0000000000000000000000000000000000000000000000000000000008152600401610d6d90612c38565b60405180910390fd5b81600660008673ffffffffffffffffffffffffffffffffffffffff1673ffffffffffffffffffffffffffffffffffffffff1681526020019081526020016000206000828254610dc59190612925565b9250508190555081600660008573ffffffffffffffffffffffffffffffffffffffff1673ffffffffffffffffffffffffffffffffffffffff1681526020019081526020016000206000828254610e1b9190612959565b9250508190555081600760008673ffffffffffffffffffffffffffffffffffffffff1673ffffffffffffffffffffffffffffffffffffffff16815260200190815260200160002060003373ffffffffffffffffffffffffffffffffffffffff1673ffffffffffffffffffffffffffffffffffffffff1681526020019081526020016000206000828254610eae9190612925565b925050819055508273ffffffffffffffffffffffffffffffffffffffff168473ffffffffffffffffffffffffffffffffffffffff167fddf252ad1be2c89b69c2b068fc378daa952ba7f163c4a11628f55a4df523b3ef84604051610f1291906121ec565b60405180910390a3600190509392505050565b600260009054906101000a900460ff1681565b6000600660003073ffffffffffffffffffffffffffffffffffffffff1673ffffffffffffffffffffffffffffffffffffffff16815260200190815260200160002054905090565b600460009054906101000a900473ffffffffffffffffffffffffffffffffffffffff1673ffffffffffffffffffffffffffffffffffffffff163373ffffffffffffffffffffffffffffffffffffffff161461100f576040517f08c379a000000000000000000000000000000000000000000000000000000000815260040161100690612a88565b60405180910390fd5b600073ffffffffffffffffffffffffffffffffffffffff168273ffffffffffffffffffffffffffffffffffffffff160361107e576040517f08c379a000000000000000000000000000000000000000000000000000000000815260040161107590612ca4565b60405180910390fd5b600081116110c1576040517f08c379a00000000000000000000000000000000000000000000000000000000081526004016110b890612d36565b60405180910390fd5b80600360008282546110d39190612959565b9250508190555080600660008473ffffffffffffffffffffffffffffffffffffffff1673ffffffffffffffffffffffffffffffffffffffff16815260200190815260200160002060008282546111299190612959565b925050819055508173ffffffffffffffffffffffffffffffffffffffff16600073ffffffffffffffffffffffffffffffffffffffff167fddf252ad1be2c89b69c2b068fc378daa952ba7f163c4a11628f55a4df523b3ef8360405161118e91906121ec565b60405180910390a38173ffffffffffffffffffffffffffffffffffffffff167f3f2c9d57c068687834f0de942a9babb9e5acab57d516d3480a3c16ee165a4273826040516111dc91906121ec565b60405180910390a25050565b6000600554905090565b600460009054906101000a900473ffffffffffffffffffffffffffffffffffffffff1673ffffffffffffffffffffffffffffffffffffffff163373ffffffffffffffffffffffffffffffffffffffff1614611282576040517f08c379a000000000000000000000000000000000000000000000000000000000815260040161127990612a88565b60405180910390fd5b600081116112c5576040517f08c379a00000000000000000000000000000000000000000000000000000000081526004016112bc90612da2565b60405180910390fd5b8060058190555050565b60003073ffffffffffffffffffffffffffffffffffffffff1631905090565b60066020528060005260406000206000915090505481565b600460009054906101000a900473ffffffffffffffffffffffffffffffffffffffff1673ffffffffffffffffffffffffffffffffffffffff163373ffffffffffffffffffffffffffffffffffffffff1614611396576040517f08c379a000000000000000000000000000000000000000000000000000000000815260040161138d90612a88565b60405180910390fd5b80518251146113da576040517f08c379a00000000000000000000000000000000000000000000000000000000081526004016113d190612e0e565b60405180910390fd5b600082511161141e576040517f08c379a000000000000000000000000000000000000000000000000000000000815260040161141590612e7a565b60405180910390fd5b60005b82518110156116fc57600073ffffffffffffffffffffffffffffffffffffffff1683828151811061145557611454612e9a565b5b602002602001015173ffffffffffffffffffffffffffffffffffffffff16036114b3576040517f08c379a00000000000000000000000000000000000000000000000000000000081526004016114aa90612ca4565b60405180910390fd5b60008282815181106114c8576114c7612e9a565b5b602002602001015111611510576040517f08c379a000000000000000000000000000000000000000000000000000000000815260040161150790612d36565b60405180910390fd5b81818151811061152357611522612e9a565b5b60200260200101516003600082825461153c9190612959565b9250508190555081818151811061155657611555612e9a565b5b60200260200101516006600085848151811061157557611574612e9a565b5b602002602001015173ffffffffffffffffffffffffffffffffffffffff1673ffffffffffffffffffffffffffffffffffffffff16815260200190815260200160002060008282546115c69190612959565b925050819055508281815181106115e0576115df612e9a565b5b602002602001015173ffffffffffffffffffffffffffffffffffffffff16600073ffffffffffffffffffffffffffffffffffffffff167fddf252ad1be2c89b69c2b068fc378daa952ba7f163c4a11628f55a4df523b3ef84848151811061164a57611649612e9a565b5b602002602001015160405161165f91906121ec565b60405180910390a382818151811061167a57611679612e9a565b5b602002602001015173ffffffffffffffffffffffffffffffffffffffff167f3f2c9d57c068687834f0de942a9babb9e5acab57d516d3480a3c16ee165a42738383815181106116cc576116cb612e9a565b5b60200260200101516040516116e191906121ec565b60405180910390a280806116f490612ec9565b915050611421565b505050565b60055481565b600460009054906101000a900473ffffffffffffffffffffffffffffffffffffffff1681565b6000600460009054906101000a900473ffffffffffffffffffffffffffffffffffffffff1673ffffffffffffffffffffffffffffffffffffffff163373ffffffffffffffffffffffffffffffffffffffff1614905090565b60018054611792906129e5565b80601f01602080910402602001604051908101604052809291908181526020018280546117be906129e5565b801561180b5780601f106117e05761010080835404028352916020019161180b565b820191906000526020600020905b8154815290600101906020018083116117ee57829003601f168201915b505050505081565b6000600554600260009054906101000a900460ff16600a61183491906127cc565b8361183f9190612817565b6118499190612888565b9050919050565b60008073ffffffffffffffffffffffffffffffffffffffff168373ffffffffffffffffffffffffffffffffffffffff16036118c0576040517f08c379a00000000000000000000000000000000000000000000000000000000081526004016118b790612b60565b60405180910390fd5b81600660003373ffffffffffffffffffffffffffffffffffffffff1673ffffffffffffffffffffffffffffffffffffffff168152602001908152602001600020541015611942576040517f08c379a000000000000000000000000000000000000000000000000000000000815260040161193990612bcc565b60405180910390fd5b81600660003373ffffffffffffffffffffffffffffffffffffffff1673ffffffffffffffffffffffffffffffffffffffff16815260200190815260200160002060008282546119919190612925565b9250508190555081600660008573ffffffffffffffffffffffffffffffffffffffff1673ffffffffffffffffffffffffffffffffffffffff16815260200190815260200160002060008282546119e79190612959565b925050819055508273ffffffffffffffffffffffffffffffffffffffff163373ffffffffffffffffffffffffffffffffffffffff167fddf252ad1be2c89b69c2b068fc378daa952ba7f163c4a11628f55a4df523b3ef84604051611a4b91906121ec565b60405180910390a36001905092915050565b600460009054906101000a900473ffffffffffffffffffffffffffffffffffffffff1673ffffffffffffffffffffffffffffffffffffffff163373ffffffffffffffffffffffffffffffffffffffff1614611aed576040517f08c379a0000000000000000000000000000000000000000000000000000000008152600401611ae490612a88565b60405180910390fd5b60008111611b30576040517f08c379a0000000000000000000000000000000000000000000000000000000008152600401611b2790612d36565b60405180910390fd5b8060036000828254611b429190612959565b9250508190555080600660003073ffffffffffffffffffffffffffffffffffffffff1673ffffffffffffffffffffffffffffffffffffffff1681526020019081526020016000206000828254611b989190612959565b925050819055503073ffffffffffffffffffffffffffffffffffffffff16600073ffffffffffffffffffffffffffffffffffffffff167fddf252ad1be2c89b69c2b068fc378daa952ba7f163c4a11628f55a4df523b3ef83604051611bfd91906121ec565b60405180910390a33073ffffffffffffffffffffffffffffffffffffffff167f3f2c9d57c068687834f0de942a9babb9e5acab57d516d3480a3c16ee165a427382604051611c4b91906121ec565b60405180910390a250565b6007602052816000526040600020602052806000526040600020600091509150505481565b600460009054906101000a900473ffffffffffffffffffffffffffffffffffffffff1673ffffffffffffffffffffffffffffffffffffffff163373ffffffffffffffffffffffffffffffffffffffff1614611d0b576040517f08c379a0000000000000000000000000000000000000000000000000000000008152600401611d0290612a88565b60405180910390fd5b60003073ffffffffffffffffffffffffffffffffffffffff163111611d65576040517f08c379a0000000000000000000000000000000000000000000000000000000008152600401611d5c90612f5d565b60405180910390fd5b600460009054906101000a900473ffffffffffffffffffffffffffffffffffffffff1673ffffffffffffffffffffffffffffffffffffffff166108fc3073ffffffffffffffffffffffffffffffffffffffff16319081150290604051600060405180830381858888f19350505050158015611de4573d6000803e3d6000fd5b50565b600460009054906101000a900473ffffffffffffffffffffffffffffffffffffffff1673ffffffffffffffffffffffffffffffffffffffff163373ffffffffffffffffffffffffffffffffffffffff1614611e77576040517f08c379a0000000000000000000000000000000000000000000000000000000008152600401611e6e90612a88565b60405180910390fd5b80600660003073ffffffffffffffffffffffffffffffffffffffff1673ffffffffffffffffffffffffffffffffffffffff168152602001908152602001600020541015611ef9576040517f08c379a0000000000000000000000000000000000000000000000000000000008152600401611ef090612fc9565b60405180910390fd5b80600660003073ffffffffffffffffffffffffffffffffffffffff1673ffffffffffffffffffffffffffffffffffffffff1681526020019081526020016000206000828254611f489190612925565b9250508190555080600660003373ffffffffffffffffffffffffffffffffffffffff1673ffffffffffffffffffffffffffffffffffffffff1681526020019081526020016000206000828254611f9e9190612959565b925050819055503373ffffffffffffffffffffffffffffffffffffffff163073ffffffffffffffffffffffffffffffffffffffff167fddf252ad1be2c89b69c2b068fc378daa952ba7f163c4a11628f55a4df523b3ef8360405161200291906121ec565b60405180910390a350565b600081519050919050565b600082825260208201905092915050565b60005b8381101561204757808201518184015260208101905061202c565b60008484015250505050565b6000601f19601f8301169050919050565b600061206f8261200d565b6120798185612018565b9350612089818560208601612029565b61209281612053565b840191505092915050565b600060208201905081810360008301526120b78184612064565b905092915050565b6000604051905090565b600080fd5b600080fd5b600073ffffffffffffffffffffffffffffffffffffffff82169050919050565b60006120fe826120d3565b9050919050565b61210e816120f3565b811461211957600080fd5b50565b60008135905061212b81612105565b92915050565b6000819050919050565b61214481612131565b811461214f57600080fd5b50565b6000813590506121618161213b565b92915050565b6000806040838503121561217e5761217d6120c9565b5b600061218c8582860161211c565b925050602061219d85828601612152565b9150509250929050565b60008115159050919050565b6121bc816121a7565b82525050565b60006020820190506121d760008301846121b3565b92915050565b6121e681612131565b82525050565b600060208201905061220160008301846121dd565b92915050565b60006020828403121561221d5761221c6120c9565b5b600061222b84828501612152565b91505092915050565b60008060006060848603121561224d5761224c6120c9565b5b600061225b8682870161211c565b935050602061226c8682870161211c565b925050604061227d86828701612152565b9150509250925092565b600060ff82169050919050565b61229d81612287565b82525050565b60006020820190506122b86000830184612294565b92915050565b6000602082840312156122d4576122d36120c9565b5b60006122e28482850161211c565b91505092915050565b600080fd5b7f4e487b7100000000000000000000000000000000000000000000000000000000600052604160045260246000fd5b61232882612053565b810181811067ffffffffffffffff82111715612347576123466122f0565b5b80604052505050565b600061235a6120bf565b9050612366828261231f565b919050565b600067ffffffffffffffff821115612386576123856122f0565b5b602082029050602081019050919050565b600080fd5b60006123af6123aa8461236b565b612350565b905080838252602082019050602084028301858111156123d2576123d1612397565b5b835b818110156123fb57806123e7888261211c565b8452602084019350506020810190506123d4565b5050509392505050565b600082601f83011261241a576124196122eb565b5b813561242a84826020860161239c565b91505092915050565b600067ffffffffffffffff82111561244e5761244d6122f0565b5b602082029050602081019050919050565b600061247261246d84612433565b612350565b9050808382526020820190506020840283018581111561249557612494612397565b5b835b818110156124be57806124aa8882612152565b845260208401935050602081019050612497565b5050509392505050565b600082601f8301126124dd576124dc6122eb565b5b81356124ed84826020860161245f565b91505092915050565b6000806040838503121561250d5761250c6120c9565b5b600083013567ffffffffffffffff81111561252b5761252a6120ce565b5b61253785828601612405565b925050602083013567ffffffffffffffff811115612558576125576120ce565b5b612564858286016124c8565b9150509250929050565b612577816120f3565b82525050565b6000602082019050612592600083018461256e565b92915050565b600080604083850312156125af576125ae6120c9565b5b60006125bd8582860161211c565b92505060206125ce8582860161211c565b9150509250929050565b7f45544820616d6f756e74206d7573742062652067726561746572207468616e2060008201527f3000000000000000000000000000000000000000000000000000000000000000602082015250565b6000612634602183612018565b915061263f826125d8565b604082019050919050565b6000602082019050818103600083015261266381612627565b9050919050565b7f4e487b7100000000000000000000000000000000000000000000000000000000600052601160045260246000fd5b6000600282049050919050565b6000808291508390505b60018511156126f0578086048111156126cc576126cb61266a565b5b60018516156126db5780820291505b80810290506126e985612699565b94506126b0565b94509492505050565b60008261270957600190506127c5565b8161271757600090506127c5565b816001811461272d576002811461273757612766565b60019150506127c5565b60ff8411156127495761274861266a565b5b8360020a9150848211156127605761275f61266a565b5b506127c5565b5060208310610133831016604e8410600b841016171561279b5782820a9050838111156127965761279561266a565b5b6127c5565b6127a884848460016126a6565b925090508184048111156127bf576127be61266a565b5b81810290505b9392505050565b60006127d782612131565b91506127e283612287565b925061280f7fffffffffffffffffffffffffffffffffffffffffffffffffffffffffffffffff84846126f9565b905092915050565b600061282282612131565b915061282d83612131565b925082820261283b81612131565b915082820484148315176128525761285161266a565b5b5092915050565b7f4e487b7100000000000000000000000000000000000000000000000000000000600052601260045260246000fd5b600061289382612131565b915061289e83612131565b9250826128ae576128ad612859565b5b828204905092915050565b7f496e73756666696369656e7420746f6b656e7320696e20636f6e747261637400600082015250565b60006128ef601f83612018565b91506128fa826128b9565b602082019050919050565b6000602082019050818103600083015261291e816128e2565b9050919050565b600061293082612131565b915061293b83612131565b92508282039050818111156129535761295261266a565b5b92915050565b600061296482612131565b915061296f83612131565b92508282019050808211156129875761298661266a565b5b92915050565b60006040820190506129a260008301856121dd565b6129af60208301846121dd565b9392505050565b7f4e487b7100000000000000000000000000000000000000000000000000000000600052602260045260246000fd5b600060028204905060018216806129fd57607f821691505b602082108103612a1057612a0f6129b6565b5b50919050565b7f4f6e6c79206f776e65722063616e2063616c6c20746869732066756e6374696f60008201527f6e00000000000000000000000000000000000000000000000000000000000000602082015250565b6000612a72602183612018565b9150612a7d82612a16565b604082019050919050565b60006020820190508181036000830152612aa181612a65565b9050919050565b7f496e73756666696369656e74206f776e65722062616c616e6365000000000000600082015250565b6000612ade601a83612018565b9150612ae982612aa8565b602082019050919050565b60006020820190508181036000830152612b0d81612ad1565b9050919050565b7f43616e6e6f74207472616e7366657220746f207a65726f206164647265737300600082015250565b6000612b4a601f83612018565b9150612b5582612b14565b602082019050919050565b60006020820190508181036000830152612b7981612b3d565b9050919050565b7f496e73756666696369656e742062616c616e6365000000000000000000000000600082015250565b6000612bb6601483612018565b9150612bc182612b80565b602082019050919050565b60006020820190508181036000830152612be581612ba9565b9050919050565b7f496e73756666696369656e7420616c6c6f77616e636500000000000000000000600082015250565b6000612c22601683612018565b9150612c2d82612bec565b602082019050919050565b60006020820190508181036000830152612c5181612c15565b9050919050565b7f43616e6e6f74206d696e7420746f207a65726f20616464726573730000000000600082015250565b6000612c8e601b83612018565b9150612c9982612c58565b602082019050919050565b60006020820190508181036000830152612cbd81612c81565b9050919050565b7f4d696e7420616d6f756e74206d7573742062652067726561746572207468616e60008201527f2030000000000000000000000000000000000000000000000000000000000000602082015250565b6000612d20602283612018565b9150612d2b82612cc4565b604082019050919050565b60006020820190508181036000830152612d4f81612d13565b9050919050565b7f5072696365206d7573742062652067726561746572207468616e203000000000600082015250565b6000612d8c601c83612018565b9150612d9782612d56565b602082019050919050565b60006020820190508181036000830152612dbb81612d7f565b9050919050565b7f417272617973206c656e677468206d69736d6174636800000000000000000000600082015250565b6000612df8601683612018565b9150612e0382612dc2565b602082019050919050565b60006020820190508181036000830152612e2781612deb565b9050919050565b7f456d707479206172726179730000000000000000000000000000000000000000600082015250565b6000612e64600c83612018565b9150612e6f82612e2e565b602082019050919050565b60006020820190508181036000830152612e9381612e57565b9050919050565b7f4e487b7100000000000000000000000000000000000000000000000000000000600052603260045260246000fd5b6000612ed482612131565b91507fffffffffffffffffffffffffffffffffffffffffffffffffffffffffffffffff8203612f0657612f0561266a565b5b600182019050919050565b7f4e6f2045544820746f2077697468647261770000000000000000000000000000600082015250565b6000612f47601283612018565b9150612f5282612f11565b602082019050919050565b60006020820190508181036000830152612f7681612f3a565b9050919050565b7f496e73756666696369656e7420636f6e74726163742062616c616e6365000000600082015250565b6000612fb3601d83612018565b9150612fbe82612f7d565b602082019050919050565b60006020820190508181036000830152612fe281612fa6565b905091905056fea2646970667358221220e15813e6580380436ee46e5e186aa226a8a889c5aae5c5642c880036c5255aa164736f6c63430008140033",
  "immutableReferences": {},
  "source": "// SPDX-License-Identifier: GPL-3.0\npragma solidity >=0.4.22 <0.9.0;\n\ncontract JJCoin {\n    string public name;\n    string public symbol;\n    uint8 public decimals;\n    uint256 public totalSupply;\n    \n    address public owner;\n    uint256 public tokenPrice; // wei\n\n    mapping(address => uint256) public balanceOf;\n    mapping(address => mapping(address => uint256)) public allowance;\n\n    event Transfer(address indexed from, address indexed to, uint256 value);\n    event Approval(address indexed owner, address indexed spender, uint256 value);\n    event TokensPurchased(address indexed buyer, uint256 ethAmount, uint256 tokenAmount);\n    event TokensMinted(address indexed to, uint256 amount);\n\n    modifier onlyOwner() {\n        require(msg.sender == owner, \"Only owner can call this function\");\n        _;\n    }\n\n    constructor() {\n        name = \"JJCoin\";\n        symbol = \"JJC\";\n        decimals = 18;\n        totalSupply = 210000 * 10**decimals; // 21\n        owner = msg.sender;\n        \n        // 1 ETH = 2500 JJCoin1 = 1 ETH / 2500\n        tokenPrice = 1 ether / 2500; // \n        \n        // owner\n        uint256 ownerShare = totalSupply / 2; // 105,000 JJCowner\n        uint256 contractShare = totalSupply - ownerShare; // 105,000 JJC\n        \n        balanceOf[msg.sender] = ownerShare;\n        balanceOf[address(this)] = contractShare;\n        \n        // \n        emit Transfer(address(0), msg.sender, ownerShare);\n        emit Transfer(address(0), address(this), contractShare);\n    }\n\n    // ERC20\n    function transfer(address _to, uint256 _value) public returns (bool success) {\n        require(_to != address(0), \"Cannot transfer to zero address\");\n        require(balanceOf[msg.sender] >= _value, \"Insufficient balance\");\n        \n        balanceOf[msg.sender] -= _value;\n        balanceOf[_to] += _value;\n        \n        emit Transfer(msg.sender, _to, _value);\n        return true;\n    }\n\n    function approve(address _spender, uint256 _value) public returns (bool success) {\n        allowance[msg.sender][_spender] = _value;\n        emit Approval(msg.sender, _spender, _value);\n        return true;\n    }\n\n    function transferFrom(address _from, address _to, uint256 _value) public returns (bool success) {\n        require(_to != address(0), \"Cannot transfer to zero address\");\n        require(balanceOf[_from] >= _value, \"Insufficient balance\");\n        require(allowance[_from][msg.sender] >= _value, \"Insufficient allowance\");\n        \n        balanceOf[_from] -= _value;\n        balanceOf[_to] += _value;\n        allowance[_from][msg.sender] -= _value;\n        \n        emit Transfer(_from, _to, _value);\n        return true;\n    }\n\n    //  - \n    function buyTokens() public payable {\n        require(msg.value > 0, \"ETH amount must be greater than 0\");\n        \n        uint256 tokenAmount = (msg.value * 10**decimals) / tokenPrice;\n        require(balanceOf[address(this)] >= tokenAmount, \"Insufficient tokens in contract\");\n        \n        // \n        balanceOf[address(this)] -= tokenAmount;\n        balanceOf[msg.sender] += tokenAmount;\n        \n        emit Transfer(address(this), msg.sender, tokenAmount);\n        emit TokensPurchased(msg.sender, msg.value, tokenAmount);\n    }\n\n    // owner\n    function mint(address _to, uint256 _amount) public onlyOwner {\n        require(_to != address(0), \"Cannot mint to zero address\");\n        require(_amount > 0, \"Mint amount must be greater than 0\");\n        \n        totalSupply += _amount;\n        balanceOf[_to] += _amount;\n        \n        emit Transfer(address(0), _to, _amount);\n        emit TokensMinted(_to, _amount);\n    }\n\n    // owner\n    function mintToContract(uint256 _amount) public onlyOwner {\n        require(_amount > 0, \"Mint amount must be greater than 0\");\n        \n        totalSupply += _amount;\n        balanceOf[address(this)] += _amount;\n        \n        emit Transfer(address(0), address(this), _amount);\n        emit TokensMinted(address(this), _amount);\n    }\n\n    // owner\n    function mintBatch(address[] memory _recipients, uint256[] memory _amounts) public onlyOwner {\n        require(_recipients.length == _amounts.length, \"Arrays length mismatch\");\n        require(_recipients.length > 0, \"Empty arrays\");\n        \n        for (uint256 i = 0; i < _recipients.length; i++) {\n            require(_recipients[i] != address(0), \"Cannot mint to zero address\");\n            require(_amounts[i] > 0, \"Mint amount must be greater than 0\");\n            \n            totalSupply += _amounts[i];\n            balanceOf[_recipients[i]] += _amounts[i];\n            \n            emit Transfer(address(0), _recipients[i], _amounts[i]);\n            emit TokensMinted(_recipients[i], _amounts[i]);\n        }\n    }\n\n    // wei\n    function getTokenPrice() public view returns (uint256) {\n        return tokenPrice;\n    }\n\n    // ETH\n    function calculateTokenAmount(uint256 _ethAmount) public view returns (uint256) {\n        return (_ethAmount * 10**decimals) / tokenPrice;\n    }\n\n    // ownerETH\n    function withdrawETH() public onlyOwner {\n        require(address(this).balance > 0, \"No ETH to withdraw\");\n        payable(owner).transfer(address(this).balance);\n    }\n\n    // owner\n    function updateTokenPrice(uint256 _newPrice) public onlyOwner {\n        require(_newPrice > 0, \"Price must be greater than 0\");\n        tokenPrice = _newPrice;\n    }\n\n    // ETH\n    function getContractBalance() public view returns (uint256) {\n        return address(this).balance;\n    }\n\n    // \n    function getContractTokenBalance() public view returns (uint256) {\n        return balanceOf[address(this)];\n    }\n\n    // owner\n    function addTokensToContract(uint256 _amount) public onlyOwner {\n        require(balanceOf[msg.sender] >= _amount, \"Insufficient owner balance\");\n        \n        balanceOf[msg.sender] -= _amount;\n        balanceOf[address(this)] += _amount;\n        \n        emit Transfer(msg.sender, address(this), _amount);\n    }\n\n    // owner\n    function withdrawTokensFromContract(uint256 _amount) public onlyOwner {\n        require(balanceOf[address(this)] >= _amount, \"Insufficient contract balance\");\n        \n        balanceOf[address(this)] -= _amount;\n        balanceOf[msg.sender] += _amount;\n        \n        emit Transfer(address(this), msg.sender, _amount);\n    }\n\n    function isOwner() public view returns (bool) {\n        return msg.sender == owner;\n    }\n\n    // ETH\n    receive() external payable {\n        buyTokens();\n    }\n\n    fallback() external payable {\n        buyTokens();\n    }\n}\n",
  "sourcePath": "/Users/edy/fs/my-truffle-demo/contracts/JJCoin.sol",
  "compiler": {
    "name": "solc",
    "version": "0.8.20+commit.a1b79de6.Emscripten.clang"
  },
  "schemaVersion": "3.4.16",
  "updatedAt": "2025-06-02T13:06:01.866Z",
  "networkType": "ethereum",
  "devdoc": {
    "kind": "dev",
    "methods": {},
    "version": 1
  },
  "userdoc": {
    "kind": "user",
    "methods": {},
    "version": 1
  }
}